{
  "contractName": "RockPaperScissors",
  "abi": [
    {
      "anonymous": false,
      "inputs": [],
      "name": "OwnerWins",
      "type": "event"
    },
    {
      "anonymous": false,
      "inputs": [],
      "name": "PlayerWins",
      "type": "event"
    },
    {
      "anonymous": false,
      "inputs": [],
      "name": "Tie",
      "type": "event"
    },
    {
      "inputs": [],
      "name": "owner",
      "outputs": [
        {
          "internalType": "address",
          "name": "",
          "type": "address"
        }
      ],
      "stateMutability": "view",
      "type": "function",
      "constant": true
    },
    {
      "inputs": [],
      "name": "ownerGuessHash",
      "outputs": [
        {
          "internalType": "bytes32",
          "name": "",
          "type": "bytes32"
        }
      ],
      "stateMutability": "view",
      "type": "function",
      "constant": true
    },
    {
      "inputs": [],
      "name": "player",
      "outputs": [
        {
          "internalType": "address payable",
          "name": "",
          "type": "address"
        }
      ],
      "stateMutability": "view",
      "type": "function",
      "constant": true
    },
    {
      "inputs": [],
      "name": "playerGuess",
      "outputs": [
        {
          "internalType": "string",
          "name": "",
          "type": "string"
        }
      ],
      "stateMutability": "view",
      "type": "function",
      "constant": true
    },
    {
      "inputs": [],
      "name": "playerStake",
      "outputs": [
        {
          "internalType": "uint256",
          "name": "",
          "type": "uint256"
        }
      ],
      "stateMutability": "view",
      "type": "function",
      "constant": true
    },
    {
      "inputs": [
        {
          "internalType": "string",
          "name": "source",
          "type": "string"
        }
      ],
      "name": "stringToBytes32",
      "outputs": [
        {
          "internalType": "bytes32",
          "name": "result",
          "type": "bytes32"
        }
      ],
      "stateMutability": "pure",
      "type": "function",
      "constant": true
    },
    {
      "inputs": [
        {
          "internalType": "string",
          "name": "a",
          "type": "string"
        },
        {
          "internalType": "string",
          "name": "b",
          "type": "string"
        }
      ],
      "name": "compareStrings",
      "outputs": [
        {
          "internalType": "bool",
          "name": "",
          "type": "bool"
        }
      ],
      "stateMutability": "pure",
      "type": "function",
      "constant": true
    },
    {
      "inputs": [
        {
          "internalType": "bytes32",
          "name": "_bytes32",
          "type": "bytes32"
        }
      ],
      "name": "bytes32ToStr",
      "outputs": [
        {
          "internalType": "string",
          "name": "",
          "type": "string"
        }
      ],
      "stateMutability": "pure",
      "type": "function",
      "constant": true
    },
    {
      "inputs": [],
      "name": "getBalance",
      "outputs": [
        {
          "internalType": "uint256",
          "name": "",
          "type": "uint256"
        }
      ],
      "stateMutability": "view",
      "type": "function",
      "constant": true
    },
    {
      "inputs": [],
      "name": "fundContract",
      "outputs": [],
      "stateMutability": "payable",
      "type": "function",
      "payable": true
    },
    {
      "inputs": [
        {
          "internalType": "bytes32",
          "name": "_ownerGuessHash",
          "type": "bytes32"
        }
      ],
      "name": "createGame",
      "outputs": [],
      "stateMutability": "nonpayable",
      "type": "function"
    },
    {
      "inputs": [
        {
          "internalType": "string",
          "name": "_playerGuess",
          "type": "string"
        }
      ],
      "name": "play",
      "outputs": [],
      "stateMutability": "payable",
      "type": "function",
      "payable": true
    },
    {
      "inputs": [
        {
          "internalType": "string",
          "name": "_ownerGuessSalt",
          "type": "string"
        }
      ],
      "name": "endGame",
      "outputs": [],
      "stateMutability": "nonpayable",
      "type": "function"
    }
  ],
  "bytecode": "0x6080604052336000806101000a81548173ffffffffffffffffffffffffffffffffffffffff021916908373ffffffffffffffffffffffffffffffffffffffff160217905550600060045534801561005557600080fd5b506115a9806100656000396000f3fe6080604052600436106100c25760003560e01c80638da5cb5b1161007f578063cfb5192811610059578063cfb519281461022a578063d7e965c314610267578063e9170c3b14610292578063ef0b2368146102bb576100c2565b80638da5cb5b146101b8578063bd097e21146101e3578063bed34bba146101ed576100c2565b806312065fe0146100c757806333c0dda8146100f2578063457391e51461011d57806348db5f89146101465780635b1f5c3614610171578063718e63021461019c575b600080fd5b3480156100d357600080fd5b506100dc6102f8565b6040516100e99190610ddf565b60405180910390f35b3480156100fe57600080fd5b50610107610300565b6040516101149190610e13565b60405180910390f35b34801561012957600080fd5b50610144600480360381019061013f9190610e6e565b610306565b005b34801561015257600080fd5b5061015b61039e565b6040516101689190610edc565b60405180910390f35b34801561017d57600080fd5b506101866103c4565b6040516101939190610f90565b60405180910390f35b6101b660048036038101906101b191906110e7565b610452565b005b3480156101c457600080fd5b506101cd6104b4565b6040516101da9190611151565b60405180910390f35b6101eb6104d8565b005b3480156101f957600080fd5b50610214600480360381019061020f919061116c565b6104da565b60405161022191906111ff565b60405180910390f35b34801561023657600080fd5b50610251600480360381019061024c91906110e7565b610533565b60405161025e9190610e13565b60405180910390f35b34801561027357600080fd5b5061027c61055d565b6040516102899190610ddf565b60405180910390f35b34801561029e57600080fd5b506102b960048036038101906102b491906110e7565b610563565b005b3480156102c757600080fd5b506102e260048036038101906102dd9190610e6e565b610c21565b6040516102ef9190610f90565b60405180910390f35b600047905090565b60025481565b60008054906101000a900473ffffffffffffffffffffffffffffffffffffffff1673ffffffffffffffffffffffffffffffffffffffff163373ffffffffffffffffffffffffffffffffffffffff1614610394576040517f08c379a000000000000000000000000000000000000000000000000000000000815260040161038b9061128c565b60405180910390fd5b8060028190555050565b600160009054906101000a900473ffffffffffffffffffffffffffffffffffffffff1681565b600380546103d1906112db565b80601f01602080910402602001604051908101604052809291908181526020018280546103fd906112db565b801561044a5780601f1061041f5761010080835404028352916020019161044a565b820191906000526020600020905b81548152906001019060200180831161042d57829003601f168201915b505050505081565b8060039080519060200190610468929190610d23565b503460048190555033600160006101000a81548173ffffffffffffffffffffffffffffffffffffffff021916908373ffffffffffffffffffffffffffffffffffffffff16021790555050565b60008054906101000a900473ffffffffffffffffffffffffffffffffffffffff1681565b565b6000816040516020016104ed9190611349565b60405160208183030381529060405280519060200120836040516020016105149190611349565b6040516020818303038152906040528051906020012014905092915050565b60008082905060008151141561054f576000801b915050610558565b60208301519150505b919050565b60045481565b60008054906101000a900473ffffffffffffffffffffffffffffffffffffffff1673ffffffffffffffffffffffffffffffffffffffff163373ffffffffffffffffffffffffffffffffffffffff16146105f1576040517f08c379a00000000000000000000000000000000000000000000000000000000081526004016105e89061128c565b60405180910390fd5b60006002546106356040518060400160405280600481526020017f726f636b0000000000000000000000000000000000000000000000000000000081525084610cf7565b6040516020016106459190611349565b6040516020818303038152906040528051906020012014905060006002546106a26040518060400160405280600581526020017f706170657200000000000000000000000000000000000000000000000000000081525085610cf7565b6040516020016106b29190611349565b60405160208183030381529060405280519060200120149050600060025461070f6040518060400160405280600881526020017f73636973736f727300000000000000000000000000000000000000000000000081525086610cf7565b60405160200161071f9190611349565b6040516020818303038152906040528051906020012014905060006108036040518060400160405280600481526020017f726f636b0000000000000000000000000000000000000000000000000000000081525060038054610780906112db565b80601f01602080910402602001604051908101604052809291908181526020018280546107ac906112db565b80156107f95780601f106107ce576101008083540402835291602001916107f9565b820191906000526020600020905b8154815290600101906020018083116107dc57829003601f168201915b50505050506104da565b905060006108d06040518060400160405280600581526020017f70617065720000000000000000000000000000000000000000000000000000008152506003805461084d906112db565b80601f0160208091040260200160405190810160405280929190818152602001828054610879906112db565b80156108c65780601f1061089b576101008083540402835291602001916108c6565b820191906000526020600020905b8154815290600101906020018083116108a957829003601f168201915b50505050506104da565b9050600061099d6040518060400160405280600881526020017f73636973736f72730000000000000000000000000000000000000000000000008152506003805461091a906112db565b80601f0160208091040260200160405190810160405280929190818152602001828054610946906112db565b80156109935780601f1061096857610100808354040283529160200191610993565b820191906000526020600020905b81548152906001019060200180831161097657829003601f168201915b50505050506104da565b90508580156109a95750825b806109ba57508480156109b95750815b5b806109cb57508380156109ca5750805b5b15610a01577f03d3457fc00afd1fa10475c1053b47c3bc256b7633702671cd8c93af3609abb760405160405180910390a1610ba0565b858015610a0b5750815b80610a1c5750848015610a1b5750805b5b80610a2d5750838015610a2c5750825b5b15610b40576000600160009054906101000a900473ffffffffffffffffffffffffffffffffffffffff1673ffffffffffffffffffffffffffffffffffffffff166004546002610a7c919061138f565b604051610a889061141a565b60006040518083038185875af1925050503d8060008114610ac5576040519150601f19603f3d011682016040523d82523d6000602084013e610aca565b606091505b5050905080610b0e576040517f08c379a0000000000000000000000000000000000000000000000000000000008152600401610b059061147b565b60405180910390fd5b7f29c57a380358c49870ed445d46353ceecdb5bb36a2ced4304fb03dfddf8221c360405160405180910390a150610b9f565b858015610b4a5750805b80610b5b5750848015610b5a5750825b5b80610b6c5750838015610b6b5750815b5b15610b9e577f4813b6a335aca5775f9834fffe028eb782d0807486720776e11e6b2f4686935360405160405180910390a15b5b5b600060048190555060006002819055506040518060200160405280600081525060039080519060200190610bd5929190610d23565b506000600160006101000a81548173ffffffffffffffffffffffffffffffffffffffff021916908373ffffffffffffffffffffffffffffffffffffffff16021790555050505050505050565b60606000602067ffffffffffffffff811115610c4057610c3f610fbc565b5b6040519080825280601f01601f191660200182016040528015610c725781602001600182028036833780820191505090505b50905060005b6020811015610ced57838160208110610c9457610c9361149b565b5b1a60f81b828281518110610cab57610caa61149b565b5b60200101907effffffffffffffffffffffffffffffffffffffffffffffffffffffffffffff1916908160001a9053508080610ce5906114ca565b915050610c78565b5080915050919050565b60608282604051602001610d0c92919061154f565b604051602081830303815290604052905092915050565b828054610d2f906112db565b90600052602060002090601f016020900481019282610d515760008555610d98565b82601f10610d6a57805160ff1916838001178555610d98565b82800160010185558215610d98579182015b82811115610d97578251825591602001919060010190610d7c565b5b509050610da59190610da9565b5090565b5b80821115610dc2576000816000905550600101610daa565b5090565b6000819050919050565b610dd981610dc6565b82525050565b6000602082019050610df46000830184610dd0565b92915050565b6000819050919050565b610e0d81610dfa565b82525050565b6000602082019050610e286000830184610e04565b92915050565b6000604051905090565b600080fd5b600080fd5b610e4b81610dfa565b8114610e5657600080fd5b50565b600081359050610e6881610e42565b92915050565b600060208284031215610e8457610e83610e38565b5b6000610e9284828501610e59565b91505092915050565b600073ffffffffffffffffffffffffffffffffffffffff82169050919050565b6000610ec682610e9b565b9050919050565b610ed681610ebb565b82525050565b6000602082019050610ef16000830184610ecd565b92915050565b600081519050919050565b600082825260208201905092915050565b60005b83811015610f31578082015181840152602081019050610f16565b83811115610f40576000848401525b50505050565b6000601f19601f8301169050919050565b6000610f6282610ef7565b610f6c8185610f02565b9350610f7c818560208601610f13565b610f8581610f46565b840191505092915050565b60006020820190508181036000830152610faa8184610f57565b905092915050565b600080fd5b600080fd5b7f4e487b7100000000000000000000000000000000000000000000000000000000600052604160045260246000fd5b610ff482610f46565b810181811067ffffffffffffffff8211171561101357611012610fbc565b5b80604052505050565b6000611026610e2e565b90506110328282610feb565b919050565b600067ffffffffffffffff82111561105257611051610fbc565b5b61105b82610f46565b9050602081019050919050565b82818337600083830152505050565b600061108a61108584611037565b61101c565b9050828152602081018484840111156110a6576110a5610fb7565b5b6110b1848285611068565b509392505050565b600082601f8301126110ce576110cd610fb2565b5b81356110de848260208601611077565b91505092915050565b6000602082840312156110fd576110fc610e38565b5b600082013567ffffffffffffffff81111561111b5761111a610e3d565b5b611127848285016110b9565b91505092915050565b600061113b82610e9b565b9050919050565b61114b81611130565b82525050565b60006020820190506111666000830184611142565b92915050565b6000806040838503121561118357611182610e38565b5b600083013567ffffffffffffffff8111156111a1576111a0610e3d565b5b6111ad858286016110b9565b925050602083013567ffffffffffffffff8111156111ce576111cd610e3d565b5b6111da858286016110b9565b9150509250929050565b60008115159050919050565b6111f9816111e4565b82525050565b600060208201905061121460008301846111f0565b92915050565b7f546869732066756e6374696f6e206973207265737472696374656420746f207460008201527f686520636f6e74726163742773206f776e657200000000000000000000000000602082015250565b6000611276603383610f02565b91506112818261121a565b604082019050919050565b600060208201905081810360008301526112a581611269565b9050919050565b7f4e487b7100000000000000000000000000000000000000000000000000000000600052602260045260246000fd5b600060028204905060018216806112f357607f821691505b60208210811415611307576113066112ac565b5b50919050565b600081905092915050565b600061132382610ef7565b61132d818561130d565b935061133d818560208601610f13565b80840191505092915050565b60006113558284611318565b915081905092915050565b7f4e487b7100000000000000000000000000000000000000000000000000000000600052601160045260246000fd5b600061139a82610dc6565b91506113a583610dc6565b9250817fffffffffffffffffffffffffffffffffffffffffffffffffffffffffffffffff04831182151516156113de576113dd611360565b5b828202905092915050565b600081905092915050565b50565b60006114046000836113e9565b915061140f826113f4565b600082019050919050565b6000611425826113f7565b9150819050919050565b7f5472616e73666572206661696c65642e00000000000000000000000000000000600082015250565b6000611465601083610f02565b91506114708261142f565b602082019050919050565b6000602082019050818103600083015261149481611458565b9050919050565b7f4e487b7100000000000000000000000000000000000000000000000000000000600052603260045260246000fd5b60006114d582610dc6565b91507fffffffffffffffffffffffffffffffffffffffffffffffffffffffffffffffff82141561150857611507611360565b5b600182019050919050565b600081519050919050565b600061152982611513565b61153381856113e9565b9350611543818560208601610f13565b80840191505092915050565b600061155b828561151e565b9150611567828461151e565b9150819050939250505056fea2646970667358221220fd0eb684ad840ad612a17a72a68dd94d7b449e2603b41750c41bc44d60515a4364736f6c634300080b0033",
  "immutableReferences": {},
  "source": "// SPDX-License-Identifier: MIT\npragma solidity >=0.4.22 <0.9.0;\n\ncontract RockPaperScissors {\n    address public owner = msg.sender;\n    address payable public player;\n    bytes32 public ownerGuessHash;\n    string public playerGuess;\n    uint256 public playerStake = 0;\n\n    modifier restricted() {\n        require(\n            msg.sender == owner,\n            \"This function is restricted to the contract's owner\"\n        );\n        _;\n    }\n\n    event Tie();\n    event OwnerWins();\n    event PlayerWins();\n\n    function stringToBytes32(string memory source)\n        public\n        pure\n        returns (bytes32 result)\n    {\n        bytes memory tempEmptyStringTest = bytes(source);\n        if (tempEmptyStringTest.length == 0) {\n            return 0x0;\n        }\n\n        assembly {\n            result := mload(add(source, 32))\n        }\n    }\n\n    function compareStrings(string memory a, string memory b)\n        public\n        pure\n        returns (bool)\n    {\n        return (keccak256(abi.encodePacked((a))) ==\n            keccak256(abi.encodePacked((b))));\n    }\n\n    function bytes32ToStr(bytes32 _bytes32)\n        public\n        pure\n        returns (string memory)\n    {\n        bytes memory bytesArray = new bytes(32);\n        for (uint256 i; i < 32; i++) {\n            bytesArray[i] = _bytes32[i];\n        }\n        return string(bytesArray);\n    }\n\n    function append(string memory a, string memory b)\n        internal\n        pure\n        returns (string memory)\n    {\n        return string(bytes.concat(bytes(a), bytes(b)));\n    }\n\n    function getBalance() public view returns (uint256) {\n        return address(this).balance;\n    }\n\n    function fundContract() external payable {}\n\n    function createGame(bytes32 _ownerGuessHash) public restricted {\n        ownerGuessHash = _ownerGuessHash;\n    }\n\n    function play(string memory _playerGuess) external payable {\n        playerGuess = _playerGuess;\n        playerStake = msg.value;\n        player = payable(msg.sender);\n    }\n\n    function endGame(string memory _ownerGuessSalt) public restricted {\n        bool isOwnerRock = keccak256(\n            abi.encodePacked(append(\"rock\", _ownerGuessSalt))\n        ) == ownerGuessHash;\n        bool isOwnerPaper = keccak256(\n            abi.encodePacked(append(\"paper\", _ownerGuessSalt))\n        ) == ownerGuessHash;\n        bool isOwnerScissors = keccak256(\n            abi.encodePacked(append(\"scissors\", _ownerGuessSalt))\n        ) == ownerGuessHash;\n\n        bool isPlayerRock = compareStrings(\"rock\", playerGuess);\n        bool isPlayerPaper = compareStrings(\"paper\", playerGuess);\n        bool isPlayerScissors = compareStrings(\"scissors\", playerGuess);\n\n        if (\n            (isOwnerRock && isPlayerRock) ||\n            (isOwnerPaper && isPlayerPaper) ||\n            (isOwnerScissors && isPlayerScissors)\n        ) {\n            emit Tie();\n        } else if (\n            (isOwnerRock && isPlayerPaper) ||\n            (isOwnerPaper && isPlayerScissors) ||\n            (isOwnerScissors && isPlayerRock)\n        ) {\n            (bool success, ) = player.call{value: 2 * playerStake}(\"\");\n            require(success, \"Transfer failed.\");\n            emit PlayerWins();\n        } else if (\n            (isOwnerRock && isPlayerScissors) ||\n            (isOwnerPaper && isPlayerRock) ||\n            (isOwnerScissors && isPlayerPaper)\n        ) {\n            emit OwnerWins();\n        }\n        playerStake = 0;\n        ownerGuessHash = \"\";\n        playerGuess = \"\";\n        player = payable(address(0));\n    }\n}\n",
  "sourcePath": "/Users/cseibert/Workspace/crypto/contract/contracts/RockPaperScissors.sol",
  "compiler": {
    "name": "solc",
    "version": "0.8.11+commit.d7f03943.Emscripten.clang"
  },
  "schemaVersion": "3.4.4",
  "updatedAt": "2022-01-10T20:10:44.841Z",
  "networkType": "ethereum",
  "devdoc": {
    "kind": "dev",
    "methods": {},
    "version": 1
  },
  "userdoc": {
    "kind": "user",
    "methods": {},
    "version": 1
  }
}